:100000000C94FE000C9426010C9426010C942601FD
:100010000C9426010C9426010C9426010C941709CB
:100020000C9426010C9426010C9426010C942601B4
:100030000C9426010C9426010C9426010C942601A4
:100040000C942E1A0C9426010C94050C0C94DF0BC6
:100050000C9426010C9426010C9426010C94260184
:100060000C946F0D0C9426019E06B906E806C7068F
:10007000030712072D072D07F507F707F9071D08D6
:10008000FB07FD07FF070E0814081A081D082108C2
:1000900026082B085D1CA21CB21CD61C011D1F1FAC
:1000A000551F6C1F00407A10F35A00A0724E1809B9
:1000B0000010A5D4E80000E87648170000E40B54CF
:1000C000020000CA9A3B000000E1F505000080969E
:1000D0009800000040420F000000A08601000000D0
:1000E000102700000000E80300000000640000008A
:1000F00000000A00000000000100000000002C7653
:10010000D888DC674F0823DFC1DFAE59E1B1B7966D
:10011000E5E3E453C63AE651997696E8E6C28426CA
:10012000EB898C9B62ED407C6FFCEFBC9C9F40F2A6
:10013000BAA56FA5F490055A2AF75C936B6CF96722
:100140006DC11BFCE0E40D47FEF520E6B500D0EDE7
:10015000902E0300943577050080841E080000204F
:100160004E0A000000C80C333333330F986E1283ED
:100170001141EF8D2114893BE65516CFFEE6DB18C1
:10018000D1844B381BF77C1D901DA4BBE424203286
:1001900084725E228100C9F124ECA1E53D270200B2
:1001A000000000240027002A00000000002500288D
:1001B000002B000000000023002600290004040496
:1001C0000404040404020202020202030303030300
:1001D00003010204081020408001020408102001DD
:1001E00002040810200000000800020100000304BF
:1001F000070000000000000000005B2011241FBE6B
:10020000CFEFD8E0DEBFCDBF26E0ACECB3E001C05D
:100210001D92A930B207E1F713E0A0E0B1E0ECEAEB
:10022000F0E502C005900D92AC3CB107D9F710E0A3
:10023000CEEFD0E004C02197FE010E944B26CD3FB7
:10024000D107C9F70E94781A0C9454280C94000026
:100250000F931F93CF93DF9300D000D000D0CDB782
:10026000DEB7082F162F0E949211842F462F298364
:100270003A838B835C836D837E83123080F48D3070
:1002800018F091E09D8301C01D822CE0622F0E9436
:10029000D625992311F09B830DC02B830BC0123000
:1002A00049F42CE0622F0E94D625429F900D112424
:1002B0009B831D83602FCE0101960E946C142696AD
:1002C0000FB6F894DEBF0FBECDBFDF91CF911F9167
:1002D0000F9108950F931F93CF93DF9300D000D019
:1002E00000D0CDB7DEB7182F062F813009F012E00D
:1002F000812F0E94921129833A834B836D837E83E1
:10030000852F90E0002321F001968370992709C082
:10031000019764E070E00E94F62597FF02C083E039
:1003200090E08C83612FCE0101960E946C1426967A
:100330000FB6F894DEBF0FBECDBFDF91CF911F91F6
:100340000F9108951F93CF93DF9300D000D000D07A
:10035000CDB7DEB7BE016F5F7F4F8FE00E94CB1637
:10036000198110FF22C08091DA05882361F081E0B5
:100370000E942F1129833A834B835C836D837E8394
:100380001092DA0509C081E00E94921129833A8314
:100390004B835C836D837E838C81833009F41E8262
:1003A00061E0CE0101960E946C1411FF22C0809181
:1003B000DB05882361F082E00E942F1129833A83B4
:1003C0004B835C836D837E831092DB0509C082E0E2
:1003D0000E94921129833A834B835C836D837E83D1
:1003E0008C81833009F41E8262E0CE0101960E9466
:1003F0006C14612F6C7F8FE00E947E138DE00E9451
:10040000541960E08DE00E947D190E947A152696AD
:100410000FB6F894DEBF0FBECDBFDF91CF911F9115
:1004200008958FEA91E00E9485148091EB03823059
:1004300041F0833019F0813039F404C081E00E942A
:100440001A1882E00E941A188DE00E94541960E088
:100450008DE00E947D190C947A150F931F93CF9312
:10046000DF93CDB7DEB72E970FB6F894DEBF0FBE81
:10047000CDBF182F062F0E94F01129833A834B839A
:100480005C836D837E838F839887892F90E011230F
:1004900019F01330A8F51FC0002331F0019663E076
:1004A00070E00E94F62509C0019763E070E00E94A9
:1004B000F62597FF02C082E090E08887CE01019682
:1004C0000E949814688581E00E942801688582E076
:1004D0000E94280115C0029799F0812F0E94921165
:1004E00029873A874B875C877E87611103C081E04B
:1004F0008D8701C01D86612FCE0109960E946C1464
:100500002E960FB6F894DEBF0FBECDBFDF91CF9110
:100510001F910F9108950F931F93CF93DF93CDB742
:10052000DEB72E970FB6F894DEBF0FBECDBF182FE3
:10053000062F813029F070F0823061F482E001C032
:1005400081E00E94921129873A874B875C876D87EB
:100550007E870AC00E94F01129833A834B835C8313
:100560006D837E838F839887832F90E0002331F003
:1005700001966CE370E00E94F62509C001976CE3D8
:1005800070E00E94F62597FF02C08BE390E01130E7
:1005900031F060F0123051F48A8762E002C08A873D
:1005A00061E0CE0109960E946C1405C08A83CE01D9
:1005B00001960E9498142E960FB6F894DEBF0FBED7
:1005C000CDBFDF91CF911F910F910895EF92FF92D0
:1005D0000F931F93CF93DF93CDB7DEB72E970FB650
:1005E000F894DEBF0FBECDBFF82EE62E81E0F816E0
:1005F000C1F0F81620F082E0F81619F132C00E941E
:10060000F01129833A834B835C836D837E838F83D0
:100610009887042F10E09230A8F1923009F443C07B
:1006200082C081E00E94921129873A874B875C87BC
:100630006D877E87042F10E0623020F1623099F1DF
:100640004FC082E00E94921129873A874B875C87CE
:100650006D877E87042F10E06230A0F0623019F1C0
:100660005BC00E94F01129833A834B835C836D83C6
:100670007E838F839887042F10E0923018F0923099
:1006800091F025C0C801EE2011F0019601C001973C
:100690006CE070E00E94F6258C0118161906BCF07B
:1006A0000CE010E014C0C801EE2039F0019668E1BA
:1006B00070E00E94F6258C010AC0019768E170E0A5
:1006C0000E94F6258C0197FF02C007E110E081E04F
:1006D000F81631F0F81638F182E0F81224C01CC088
:1006E00080EC91E00E9485140B876FEC71E085EB44
:1006F00094E00E94DD0B4B8550E060E070E02AE062
:1007000085EB94E00E94940B6DED71E085EB94E035
:100710000E947F0B61E002C00B8762E0CE01099668
:100720000E946C1405C00B83CE0101960E949814A0
:1007300080EE91E00E9485142E960FB6F894DEBFED
:100740000FBECDBFDF91CF911F910F91FF90EF9022
:1007500008950F931F93CF93DF93CDB7DEB72897FC
:100760000FB6F894DEBF0FBECDBF98E0EDE2F1E02A
:10077000DE01119601900D929A95E1F7FE013196F6
:10078000E80FF11DE80FF11D618180810E9484183E
:1007900003EE15E0F8018089982F9260908B8A60B3
:1007A0000E946C15F8018089982F9160908B896068
:1007B00028960FB6F894DEBF0FBECDBFDF91CF9164
:1007C0001F910F910C946C15CF92DF92EF92FF92D4
:1007D0000F931F93CF93DF93CDB7DEB72C970FB650
:1007E000F894DEBF0FBECDBFC82ED62E82E0C81251
:1007F00081E00E9492112F837C87062F152FF42E03
:10080000E32E8091D6038F1511F0DD24D3948091CF
:10081000D503E81611F0DD24D3948091D803801716
:1008200011F0DD24D3948091D703181303C0DD2089
:1008300009F47AC00E94721560E080E00E9484187A
:1008400082E0C81203C06FEE71E002C067EF71E092
:1008500083EE95E00E94DD0B60E08DE00E9484183D
:100860008C85882319F06FEF71E002C062E072E0BE
:1008700083EE95E00E94DD0B61E080E00E94841829
:100880006F2D70E0CE0101960E94450FCE010196BA
:100890000E94CE18CE0101960E94FD0866E072E02B
:1008A00083EE95E00E94DD0B6E2D70E0CE01019687
:1008B0000E94450FCE0101960E94CE18CE010196EE
:1008C0000E94FD08013021F030F468E072E005C0BC
:1008D0006CE072E002C060E172E083EE95E00E949D
:1008E000DD0B113059F038F0123059F0133079F433
:1008F0006DE272E008C064E172E005C06BE172E095
:1009000002C064E272E083EE95E00E94DD0BE886AF
:10091000F9861A870B8786E0FE013796A4EDB3E0CF
:1009200001900D928A95E1F72C960FB6F894DEBFF0
:100930000FBECDBFDF91CF911F910F91FF90EF9030
:10094000DF90CF9008954F925F926F927F92BF9207
:10095000CF92DF92EF92FF920F931F93CF93DF938B
:10096000CDB7DEB7AF970FB6F894DEBF0FBECDBFE1
:10097000182F0E94F011C32EB42EE62ED72EF82E7B
:10098000092F2AA33BA34CA35DA36EA37FA388A733
:1009900099A70E94221A4090E7035090E8036090C4
:1009A000E9037090EA03DC01CB0184199509A609DB
:1009B000B709883E9D4FA105B10530F490912601FD
:1009C00080915E05981771F14090E3035090E40325
:1009D0006090E5037090E6030E94EF0E6093E303DE
:1009E0007093E4038093E5039093E6030E94221A38
:1009F0006093E7037093E8038093E9039093EA031D
:100A00008091260180935E052091E3033091E403F9
:100A10004091E5035091E603C301B2010E945723C0
:100A2000811111E08091CE038B1111E08091CD03F3
:100A3000C81211E08091D303801311E08091D0039C
:100A4000E81211E08091D103D81211E08091D20315
:100A5000F81203C0112309F41FC10E94721560E04F
:100A600080E00E9484186B2D70E0CE0101960E94F8
:100A7000450FCE0101960E94CE18CE0101960E942C
:100A8000FD0866E072E083EE95E00E94DD0B6C2DC0
:100A900070E0CE0101960E94450FCE0101960E94A2
:100AA000CE18CE0101960E94FD08013049F028F0D1
:100AB000023061F46DE372E005C063E372E002C0EE
:100AC00068E372E083EE95E00E94DD0B20E030E009
:100AD00048EC52E46091E3037091E4038091E503F4
:100AE0009091E6030E94572387FF06C063E572E0FA
:100AF00083EE95E00E94DD0B6091E3037091E403C7
:100B00008091E5039091E6031BA61AA61DA61CA6DC
:100B10001FA61EA68E010F5F1F4F21E043E00E941B
:100B2000D020009771F0FC0101900020E9F7319787
:100B3000AF01481B590BBC01CE018A960E94DC080C
:100B400004C0CE018A960E94CA08CE018A960E94ED
:100B5000CE18CE018A960E94FD0841E06FED83EE2B
:100B600095E00E94160D80912601882319F064E01B
:100B700072E002C062E472E083EE95E00E94DD0B59
:100B800061E080E00E948418EDA1E83008F0E0E028
:100B9000F0E0EE0FFF1FEB5CFE4F60817181CE0134
:100BA00001960E940209CE0101960E94CE18CE0144
:100BB00001960E94FD0863E572E083EE95E00E94D5
:100BC000DD0B6D2D70E0CE0101960E94450FCE0128
:100BD00001960E94CE18CE0101960E94FD0864E4A1
:100BE00072E083EE95E00E94DD0B6E2D70E0CE0189
:100BF00001960E94450FCE0101960E94CE18CE01AB
:100C000001960E94FD0864E472E083EE95E00E9484
:100C1000DD0B4F2D50E04053584F052E000C660B56
:100C2000770B2AE083EE95E00E94940B64E083EE5C
:100C300095E00E94690D1982BE016F5F7F4F8EE0C3
:100C40000E94CB1689818370823069F0833069F00D
:100C5000813039F065E972E083EE95E00E94DD0BAA
:100C600009C061E003C062E001C063E083EE95E08B
:100C70000E94690D0E94F0112093CC033093CD03A4
:100C80004093CE035093CF036093D0037093D1036E
:100C90008093D2039093D303AF960FB6F894DEBF40
:100CA0000FBECDBFDF91CF911F910F91FF90EF90BD
:100CB000DF90CF90BF907F906F905F904F9008959E
:100CC0000F931F93CF93DF93EC0166E472E085EB03
:100CD00094E00E94DD0B8C818A3051F08B3029F03A
:100CE000893051F480E692E005C085E592E002C0CB
:100CF00087E692E00E9485140E94221A0091DB038D
:100D00001091DC032091DD033091DE03DC01CB0187
:100D1000801B910BA20BB30B813D9740A105B10540
:100D200008F4BBC0E0912401F0912501E830F10501
:100D300008F0B3C0EC5CFF4F0C944B2685E090E0CC
:100D400090932501809324011092EC030E94221AB3
:100D50006093DB037093DC038093DD039093DE03E9
:100D600081E08093DA03DF91CF911F910F910C9472
:100D7000D7188C818A3079F08B3059F585E090E076
:100D800090932501809324011092EC0358C08C812C
:100D90008A3009F082C087E090E09093250180932B
:100DA00024011092EC030E94221A6093DB037093DB
:100DB000DC038093DD039093DE0381E08093DA030C
:100DC00061E082E0DF91CF911F910F910C94E403D9
:100DD0008C81893009F061C086E090E09093250114
:100DE000809324011092EC030E94221A6093DB038B
:100DF0007093DC038093DD039093DE0381E08093A6
:100E0000DA0361E0DFCF8C81893008F446C08B3093
:100E100030F08B3009F041C00E94110225C00E94C1
:100E2000A20122C08C818B30C1F50E94EC180E9477
:100E3000F41881E090E090932501809324010E94B2
:100E4000221A6093DB037093DC038093DD0390939D
:100E5000DE0381E08093DA0320C08C818B30E9F4DB
:100E60000E94EC180E94F41881E090E09093250114
:100E7000809324010E94221A6093DB037093DC03A9
:100E80008093DD039093DE0381E08093DA03DF91AA
:100E9000CF911F910F910C94A304DF91CF911F91DB
:100EA0000F9108959091260181E089278093260172
:100EB0000E94EF0E6093E3037093E4038093E503D5
:100EC0009093E6030E94221A6093E7037093E8036D
:100ED0008093E9039093EA0381E00C94A304CF93F9
:100EE000DF93EC016EE672E085EB94E00E94DD0B8F
:100EF0008C818A3051F08B3029F0893051F480E6B2
:100F000092E005C085E592E002C087E692E00E948B
:100F100085148091DA03882339F08EE792E00E94ED
:100F200085141092DA0309C1809124019091250162
:100F30008430910531F128F4009761F00197A1F018
:100F4000FCC08630910509F48BC080F1079709F445
:100F5000B8C0F3C081E090E0909325018093240114
:100F6000DF91CF910C94D7188C81893029F08A3089
:100F700009F0E3C082E001C081E0DF91CF910C94E1
:100F8000B30E8C81893008F4D8C08B3030F08B30B0
:100F900009F0D3C00E94110202C00E94A20181E0A8
:100FA00090E09093250180932401C7C08C818A3002
:100FB00041F18B3021F0893009F0BFC009C0809128
:100FC000EC038F5F67E00E94D6259093EC03B5C0D9
:100FD000E091EC038E2F90E08730910508F0ADC0D2
:100FE000FC01E45CFF4F0C944B2660E018C060E00D
:100FF0001CC060E020C080E025C080E028C080E008
:101000002BC0E091EC038E2F90E08730910508F023
:1010100094C0FC01ED5BFF4F0C944B2661E080E037
:10102000DF91CF910C94E60261E080E0DF91CF91F7
:101030000C948B0261E080E077C0DF91CF910C943B
:10104000520781E0DF91CF910C94531781E0DF913B
:10105000CF910C948C1781E0DF91CF910C94E51720
:101060008C818A30B9F08B30A1F1893009F065C0EC
:101070008091EC03813051F038F0823049F08330B8
:1010800009F05BC060E01BC060E011C060E012C00E
:1010900060E013C08091EC03813059F038F0823069
:1010A00059F0833009F049C061E009C061E081E096
:1010B000B7CF61E081E0BACF61E081E035C081E087
:1010C00038C08C818A30E9F08B3019F08930A9F56D
:1010D00007C08091EC038F5F83708093EC032DC079
:1010E0008091EC03813049F030F0823041F0833060
:1010F00021F560E01DC060E010C060E011C060E05C
:1011000012C08091EC03813051F030F0823051F008
:10111000833099F461E00CC061E082E081CF61E04E
:1011200082E084CF61E082E0DF91CF910C942D02C8
:1011300082E0DF91CF910C946A01DF91CF91089505
:1011400008950E943F280F931F93CF93DF93EC01E4
:1011500088819981009729F02A813B8126173707DA
:1011600088F48B016F5F7F4F0E947927009761F0B1
:10117000998388831B830A832C813D81232B11F45F
:10118000FC01108281E001C080E0DF91CF911F91CE
:101190000F910895CF93DF93EC0188819981009797
:1011A00011F00E94F026198218821D821C821B8277
:1011B0001A82DF91CF910895EF92FF920F931F93C0
:1011C000CF93DF93EC017B018A01BA010E94A3084F
:1011D000811104C0CE010E94CA0807C01D830C8380
:1011E000B701888199810E944D28CE01DF91CF916E
:1011F0001F910F91FF90EF900895FC0180819181E4
:101200000C94F026FC011182108213821282158246
:1012100014826115710551F0FB0101900020E9F77E
:101220003197AF01461B570B0C94DC0808951F92B1
:101230000F920FB60F9211242F933F934F935F930A
:101240006F937F938F939F93AF93BF93EF93FF938E
:101250008091F6039091F703A091F803B091F90300
:10126000892B8A2B8B2B51F19091F103E091F203A2
:10127000F091F3038081892780838091F603909118
:10128000F703A091F803B091F903181619061A068E
:101290001B06C4F48091F6039091F703A091F80324
:1012A000B091F9030197A109B1098093F6039093D6
:1012B000F703A093F803B093F90304C080912001D1
:1012C0000E94540BFF91EF91BF91AF919F918F912D
:1012D0007F916F915F914F913F912F910F900FBE32
:1012E0000F901F901895CF92DF92EF92FF920F937D
:1012F0001F93CF93DF936C017A018B01C0E0D0E0A4
:10130000CE15DF0581F0D8016D918D01D601ED91EB
:10131000FC910190F081E02DC6010995892B11F017
:101320002196EECF7E01C701DF91CF911F910F91E2
:10133000FF90EF90DF90CF900895FC01538D448D86
:10134000252F30E0842F90E0821B930B541710F070
:10135000CF96089501970895FC01918D828D98177D
:1013600061F0828DDF01A80FB11D5D968C91928D89
:101370009F5F9F73928F90E008958FEF9FEF089586
:10138000FC01918D828D981731F0828DE80FF11D4F
:10139000858D90E008958FEF9FEF0895FC01918D6A
:1013A000228D892F90E0805C9F4F821B91098F7363
:1013B0009927089585EB94E00E94CE0921E0892BBE
:1013C00009F420E0822F0895FC01848DDF01A80F2D
:1013D000B11DA35ABF4F2C91848D90E001968F735D
:1013E0009927848FA689B7892C93A089B1898C917C
:1013F000837080648C93938D848D981306C00288CB
:10140000F389E02D80818F7D80830895EF92FF9294
:101410000F931F93CF93DF93EC0181E0888F9B8D17
:101420008C8D981305C0E889F989808185FD26C0D7
:10143000F62E0B8D10E00F5F1F4F0F731127E02E5C
:101440008C8DE8120CC00FB607FCFACFE889F98939
:10145000808185FFF5CFCE010E94E409F1CF8B8D0D
:10146000FE01E80FF11DE35AFF4FF0829FB7F89499
:101470000B8FEA89FB89808180620AC09FB7F8944C
:10148000EE89FF896083E889F989808183708064AF
:1014900080839FBF81E090E0DF91CF911F910F91FA
:1014A000FF90EF900895CF93DF93EC01888D882310
:1014B000C9F0EA89FB89808185FD05C0A889B989C1
:1014C0008C9186FD0FC00FB607FCF5CF808185FF9C
:1014D000F2CFA889B9898C9185FFEDCFCE010E940A
:1014E000E409E7CFDF91CF91089580E090E0892B68
:1014F00029F00E94DA0981110C940000089585ED0D
:101500008093BC008091BC0084FDFCCF1092B40499
:10151000089540912604262F30E0240F311D2132FA
:101520003105DCF42091B4042430C9F4FC0180E0DE
:1015300090E0861758F4309126042191DC01AA5FCF
:10154000BB4FA30FB11D2C930196F3CF80912604BE
:10155000680F6093260480E0089581E0089582E09A
:101560000895089508950895E0914A0480914904EA
:10157000E81730F4F0E0E259FB4F808190E00895E5
:101580008FEF9FEF089590914A0480914904981736
:1015900050F4E92FF0E0E259FB4F208130E09F5FEB
:1015A00090934A0402C02FEF3FEFC9010895809144
:1015B000490490E020914A04821B91090895CF923A
:1015C000DF92EF92FF920F931F93CF93DF937C01F3
:1015D000CB018A0120914B04222389F0EB016B019E
:1015E000C40ED51ECC15DD0569F06991D701ED91CA
:1015F000FC910190F081E02DC7010995F3CF642F94
:101600000E94890AC801DF91CF911F910F91FF902D
:10161000EF90DF90CF900895CF93DF931F92CDB7D7
:10162000DEB7698320914B042223D1F020916D0411
:10163000203240F021E030E0FC013383228380E05F
:1016400090E015C080914C04E82FF0E0E35BFB4F85
:10165000998190838F5F80934C0480936D0405C0C3
:1016600061E0CE0101960E94890A81E090E00F902E
:10167000DF91CF91089580E090E00895CF93DF93BC
:10168000EC0160E08E810E947D1961E08E810E94F4
:101690007D1960E08E810E947D198BE891E00197B1
:1016A000F1F7DF91CF91089590912001891324C023
:1016B000EEE9F1E0E4919FEF90932001E130B9F081
:1016C00098F0E230C9F4909170009D7F9093700083
:1016D00091E09093B0009091B100987F94609093C6
:1016E000B1001092B30008C010926E0005C0909136
:1016F0006F009D7F90936F0060E00C947D196115E1
:10170000710579F0FB0101900020E9F73197AF01F5
:10171000461B570BDC01ED91FC910280F381E02D1B
:10172000099480E090E008958F929F92AF92BF92CB
:10173000EF92FF920F931F93CF93DF93CDB7DEB756
:10174000A1970FB6F894DEBF0FBECDBF7C01FA01A2
:10175000CB0119A2223008F42AE08E010F5D1F4F41
:10176000822E912CA12CB12CBF01A50194010E94C5
:101770000A26F901CA01015011096A3014F4605DAA
:1017800001C0695CD8016C93232B242B252B61F7B6
:10179000B801C7010E947F0BA1960FB6F894DEBF77
:1017A0000FBECDBFDF91CF911F910F91FF90EF90B2
:1017B000BF90AF909F908F9008950C947F0B1F92D5
:1017C0000F920FB60F9211242F933F934F935F9375
:1017D0006F937F938F939F93AF93BF93EF93FF93F9
:1017E00085EB94E00E94E409FF91EF91BF91AF91E6
:1017F0009F918F917F916F915F914F913F912F9129
:101800000F900FBE0F901F9018951F920F920FB65A
:101810000F9211242F938F939F93EF93FF93E09157
:10182000C504F091C6048081E091CB04F091CC0412
:1018300082FD12C090818091CE048F5F8F732091C2
:10184000CF04821751F0E091CE04F0E0EB54FB4F4F
:10185000958F8093CE0401C08081FF91EF919F917D
:101860008F912F910F900FBE0F901F9018950F938F
:101870001F93CF93DF93EC018E8180FF02C08260C3
:1018800001C08D7F8E838C810E9454194D8150E060
:101890002E818417950711F42E7F01C021602E83BD
:1018A0008E81282F30E0A9015595479524273527AB
:1018B00020FF5FC00E94221A2F81222351F02D8920
:1018C0003E89621B730B898D9A8D6817790708F41E
:1018D0007BC00E94221A6D8B7E8B8F8B988F8E819E
:1018E00080FF13C08DA19EA101969EA38DA3EB8DB9
:1018F000FC8D309711F0CE0109950E94221A69875C
:101900007A878B879C871FA230C0ED8DFE8D309724
:1019100011F0CE010995EF8DF8A1309711F0CE01AD
:1019200009950E94221A2D853E85621B730B8A81C0
:101930009B818617970748F081E08887E9A1FAA183
:10194000309721F0CE01099501C0188689859A85C6
:10195000AB85BC858D879E87AF87B88B8FEF9FEF58
:10196000DC0189879A87AB87BC878E8184608E83F0
:101970002BC08B7F8E8389859A85AB85BC858F3FF5
:101980009F4FAF4FBF4F01F18FA181111DC00E942A
:10199000221A09851A852B853C85AB01BC01401BA9
:1019A000510B620B730B88819981A0E0B0E0841722
:1019B0009507A607B70740F4EBA1FCA1309721F0EB
:1019C000CE01099581E08FA3DF91CF911F910F91F7
:1019D0000895CF92DF92EF92FF920F931F93CF93D0
:1019E000DF936C017C0187E0E80EF11CC0E0D0E0E1
:1019F000062F10E0B8010C2E02C0759567950A9469
:101A0000E2F76170F70181917F010E947D192196B3
:101A1000C430D10579F7C601DF91CF911F910F91A5
:101A2000FF90EF90DF90CF900C943E0BCF92DF921F
:101A3000EF92FF920F931F93CF93DF93EC01F62E5B
:101A4000642F8C810E947D198D818F3F19F060E099
:101A50000E947D198F850F2D10E084FF25C06E0137
:101A600087E0C80ED11CE12CF12CB8010E2C02C06D
:101A7000759567950A94E2F76170F60181916F019F
:101A80000E947D19FFEFEF1AFF0A88E0E816F104C3
:101A900061F7CE01DF91CF911F910F91FF90EF90F1
:101AA000DF90CF900C943E0BB80184E0759567955C
:101AB0008A95E1F7CE010E94E90C6F2DCE01DF91EE
:101AC000CF911F910F91FF90EF90DF90CF900C94EA
:101AD000E90C41E00E94160D81E090E008951F920C
:101AE0000F920FB60F9211242F933F934F935F9352
:101AF0006F937F938F939F93AF93BF93EF93FF93D6
:101B00008091B900887F803609F49CC068F58832DE
:101B100009F45BC090F4803109F454C038F4882390
:101B200009F4F6C0883009F44DC0F6C0883109F4D4
:101B30004CC0803209F45DC0EFC0803409F468C045
:101B400048F4803309F455C0883309F0E5C0809328
:101B5000B204D8C0803509F44FC0883509F45DC09F
:101B6000883409F0D9C0D6C0883909F4C7C0A8F4B0
:101B7000883709F467C038F4883609F463C08037C1
:101B800009F460C0C9C0883809F4B8C0803909F4C4
:101B90005FC0803809F0C0C05BC0803B09F486C0DC
:101BA00038F4803A09F466C0883A09F47FC0B4C0BA
:101BB000803C09F4A7C0883C09F4A4C0883B09F420
:101BC0008AC0AAC08091AF0410C09091B1048091E6
:101BD000B004981770F5E091B10481E08E0F809306
:101BE000B104F0E0E257FB4F80818093BB0085ECAD
:101BF00086C08093B2048EC0E091B10481E08E0F64
:101C00008093B1048091BB00F0E0E257FB4F8083EA
:101C10009091B1048091B0046EC0E091B10481E074
:101C20008E0F8093B1048091BB00F0E0E257FB4F30
:101C300080838091B30481116DC081E08093AE04F4
:101C400084EA61C083E08093B40410924804CFCF4B
:101C500080914804803208F051C0E091480481E04E
:101C60008E0F809348048091BB00F0E0E85DFB4F4D
:101C70008083BDCF85EC8093BC001092B40480912A
:101C80004804803230F4E0914804F0E0E85DFB4F16
:101C900010826091480470E0E091DF03F091E0036E
:101CA00088E294E009951092480436C084E080935D
:101CB000B4041092270410922604E091E103F091FD
:101CC000E203099580912604811105C081E080938B
:101CD000260410920604E091270481E08E0F809381
:101CE0002704F0E0EA5FFB4F80818093BB00909176
:101CF000270480912604981708F479CF85E880930B
:101D0000BC000AC085EC8093BC001092B40404C0EF
:101D10001092B2040E947F0AFF91EF91BF91AF91A0
:101D20009F918F917F916F915F914F913F912F91F3
:101D30000F900FBE0F901F9018956AE00E94D62555
:101D4000292F30E1839FC0011124822B0895982F01
:101D50009695969596959E71292F220F220F920F98
:101D60008F70890F08951F93CF93DF9300D000D019
:101D700000D0CDB7DEB7182F823019F483E090E0A1
:101D800002C082E090E09093250180932401812F8E
:101D90000E94921129833A834B835C836D8381E097
:101DA00078277E83612FCE0101960E946C140E94D9
:101DB000221A6093ED037093EE038093EF039093E8
:101DC000F00361E0812F0E94E40326960FB6F89499
:101DD000DEBF0FBECDBFDF91CF911F910895CF928F
:101DE000DF92EF92FF92CF93DF9300D0CDB7DEB7B3
:101DF0001982BE016E5F7F4F81E10E94CB16BE014A
:101E00006F5F7F4F82E10E94CB16698170E086E0B0
:101E1000759567958A95E1F7072E000C880B990B4D
:101E20000E945E2320E030E040E85EE30E94BD2394
:101E30006B017C016A8170E080E090E00E945E238B
:101E40009B01AC01C701B6010E94C224209126016A
:101E5000222391F020E030E040E151E40E94BD23D4
:101E600020E030E040EA50E40E942E2520E030E0FF
:101E700040E052E40E94C2240F900F90DF91CF9176
:101E8000FF90EF90DF90CF900895AF92BF92CF92E6
:101E9000DF92EF92FF920F931F93CF93DF93CDB713
:101EA000DEB72C970FB6F894DEBF0FBECDBF8C0106
:101EB0006B016FED71E00E940209CE0101967C0179
:101EC000B6019AE0C916D1040CF040C0CE010796C5
:101ED0000E9496186AEC73E0C7010E9402098B8584
:101EE0009C85AF80B884A114B10409F478C0009730
:101EF000B1F0CD80DE80C80ED91EB601C7010E94A8
:101F0000A308882309F46BC029813A818D819E81C1
:101F1000B501820F931F0E944D28DE82CD82E0160C
:101F2000F10671F069817A816115710531F04D8199
:101F30005E81C8010E94DC0803C0C8010E94CA0873
:101F4000C7010E94FD08CE01079635C0C7010E9457
:101F50009618E016F10671F1F801808191810097E1
:101F6000B1F069817A816115710579F042815381FF
:101F70002D813E814217530740F00E944D288D81EC
:101F80009E81F8019583848313C00E94F026898185
:101F90009A81F801918380838B819C8193838283D2
:101FA0008D819E81958384831A8219821C821B8273
:101FB0001E821D82C7010E94FD08C8012C960FB623
:101FC000F894DEBF0FBECDBFDF91CF911F910F916F
:101FD000FF90EF90DF90CF90BF90AF900895C70132
:101FE0000E94CA089CCFCF93C82F8091D8050E9429
:101FF000C1160E94FD16882311F080E030C0809148
:10200000D8050E94C11680E090E00E9400178C2F36
:1020100090E00E9400170E94FD168111EECF41E072
:1020200061E08091D8050E94231610924A048093A3
:10203000490440E050E080E02091490430E0909174
:102040004A04291B3109121613064CF4452B39F4A6
:1020500082E595E00E94C30A41E050E0EDCFCF91C8
:102060000895EF92FF920F931F93CF93DF93D82F92
:102070007B01C42F8091D7050E94C1166D2F82E588
:1020800095E00E940C0B80E00E946516D82F81110C
:102090001CC06C2FC13208F060E241E08091D7058E
:1020A0000E94231610924A0480934904C8130FC05B
:1020B0008701F12CCF1561F082E595E00E94C30AFB
:1020C000F80181938F01F394F5CFC0E001C0C82FD0
:1020D000F0E1DF9FC00111248C2BDF91CF911F9184
:1020E0000F91FF90EF900895FF920F931F93CF935E
:1020F000DF93C82FF62E072F142F8091D7050E944B
:10210000C1166C2F82E595E00E940C0BCF2DD02FCD
:10211000CE01810F911D8C01C017D10731F069915B
:1021200082E595E00E940C0BF7CF81E0DF91CF9123
:102130001F910F91FF900C946516CF93DF93D82FCA
:10214000C62F8091D8050E94C1160E94FD168111EC
:102150001BC08091D8050E94C11680E090E00E94CB
:1021600000178D2F90E00E9400176C2F82E595E0FC
:102170000E940C0B0E94FD166AE070E080E090E087
:10218000DF91CF910C94E819DF91CF910895CF9210
:10219000DF92EF92FF920F931F93CF93DF93CDB710
:1021A000DEB72B970FB6F894DEBF0FBECDBF182F4A
:1021B000813011F08AE001C087E044E0BE01695F30
:1021C0007F4F0E943110123009F41F828F818F7768
:1021D0000E94A70EC82E88858F770E94A70ED82E42
:1021E000898586FF08C085FB002700F98F710E9452
:1021F000A70EF82E05C08F730E94A70EF82E02E0DE
:1022000088E00E94F30F113029F090E095958795B2
:102210009595879583708B87EB84BE01655F7F4FB3
:102220008EE00E94CB167B85113011F4717002C0D4
:102230007695717096014F2D5E2D602F80E090E0B5
:102240002B960FB6F894DEBF0FBECDBFDF91CF91B6
:102250001F910F91FF90EF90DF90CF900895CF9254
:10226000DF92EF92FF920F931F93CF93DF9300D0F3
:1022700000D000D0CDB7DEB7082F813041F480E028
:102280000E94F30F0E94A70ED82E81E002C0D12C2D
:1022900084E00E94F30F0E94A70EC82E013011F0B7
:1022A00085E001C082E00E94F30F86FF08C085FB35
:1022B000FF24F0F88F710E94A70EE82E06C08F73DE
:1022C0000E94A70EE82E32E0F32E88E00E94F30F62
:1022D000013029F090E09595879595958795182F71
:1022E000137087E00E94F30F013019F4782F71709A
:1022F00003C081FB772770F92D2D3C2D4E2D512FDA
:102300006F2D80E090E026960FB6F894DEBF0FBEEA
:10231000CDBFDF91CF911F910F91FF90EF90DF9094
:10232000CF900895CF93DF93CDB7DEB762970FB606
:10233000F894DEBF0FBECDBF813019F0823029F195
:1023400035C08091DA05882321F081E00E942F11A9
:1023500003C081E00E94C7102F83388749875A87BE
:102360006B877C8786E0FE013796DE01119601902F
:102370000D928A95E1F786E0FE013196DE011D9609
:1023800001900D928A95E1F711C08091DB058823B9
:1023900021F082E00E942F1103C082E00E94C7104A
:1023A0002D873E874F87588B698B7A8B86E0FE019D
:1023B0003D96DE01179601900D928A95E1F72F81E7
:1023C000388549855A856B857C8580E090E06296EA
:1023D0000FB6F894DEBF0FBECDBFDF91CF91089549
:1023E000AF92BF92CF92DF92EF92FF920F931F9323
:1023F000CF93DF93CDB7DEB72F970FB6F894DEBF3C
:102400000FBECDBF47E0BE01675F7F4F80E00E94F7
:10241000311089850E94A70EA82E8A850E94A70EDA
:10242000B82E8B8586FF08C085FB112710F98F71A8
:102430000E94A70EF82E05C08F730E94A70EF82EDB
:1024400012E08C850E94A70EC82E8D850E94A70ED3
:10245000D82E8E8587FD02C000E001C004E68F7192
:102460000E94A70EE82E8F850E94A70E95014F2D82
:102470005C2D6D2D7E2D800F912F2F960FB6F89429
:10248000DEBF0FBECDBFDF91CF911F910F91FF90A7
:10249000EF90DF90CF90BF90AF900895EF92FF92B2
:1024A0000F931F93CF93DF93CDB7DEB728970FB667
:1024B000F894DEBF0FBECDBF182FE62EF42E022FEC
:1024C0000E94F011242F852F60E177E2969FA001F2
:1024D000979F500D112494E6299F400D511D112402
:1024E000430F511DE69E9001E79E300D112494E6A6
:1024F000F99E200D311D1124200F311D4217530765
:1025000074F4113021F008F11230F9F405C09EEF97
:10251000980F953078F419C08130B1F416C011309D
:1025200031F068F0123041F0133049F00EC08F5F87
:10253000873058F082E009C0873030F003C08F5FE9
:10254000883019F481E001C087E028960FB6F8942E
:10255000DEBF0FBECDBFDF91CF911F910F91FF90D6
:10256000EF9008958F929F92AF92BF92CF92DF9299
:10257000EF92FF920F931F93CF93DF9300D01F92A0
:10258000CDB7DEB78C01A62E21E0621309C0FC0195
:1025900080810E949D0E8983682F80E00E949D109B
:1025A000F801E1808E2D0E949D0E8983F801F48050
:1025B000F2E0FF1206C0F80182810E949D0E8F7327
:1025C0000DC0F8018281F11005C00E949D0E8F712F
:1025D000806404C00E949D0E8F7180668A832E2DB8
:1025E000F80142816F2D83810E944E120E949D0E40
:1025F000F8019381911102C0806801C080648B83CF
:10260000F1E0AF1619F094E0B92E02C0BB24B394E8
:10261000812C912C83E0C82ED12C6091E205E62E0E
:10262000F12C8B2D0E94D625E91AF108C6012FE165
:10263000C216D10414F08EE190E08E159F050CF4C3
:102640007C018091D8050E94C1160E94FD1681115F
:1026500020C08091D8050E94C11680E090E00E94C1
:1026600000178B2D90E00E94001743E050E061E0DE
:1026700070E06C0F7D1F680D791D82E595E00E946A
:10268000DF0A0E94FD166AE070E080E090E00E94A0
:10269000E819CE18DF088E0C9F1CBE0C1C141D04FC
:1026A0000CF4BBCF87E00E94F30F982F9770F801CE
:1026B0002581F1E0AF1206C0222311F0916005C020
:1026C000867006C0222319F09260998302C085703B
:1026D0008983698187E00E949D1081E00F900F90AF
:1026E0000F90DF91CF911F910F91FF90EF90DF90AE
:1026F000CF90BF90AF909F908F900895CF93DF932E
:10270000D82FC62F8091D7050E94C1166D2F82E564
:1027100095E00E940C0B6C2F82E595E00E940C0B5B
:1027200081E0DF91CF910C946516CF93DF931F92D8
:10273000CDB7DEB7BE016F5F7F4F8EE00E94CB1634
:10274000898187FF04C091E09093DC0502C010925C
:10275000DC0586FF04C091E09093DD0502C0109275
:10276000DD0585FF04C091E09093DE0502C0109264
:10277000DE0584FF04C091E09093DF0502C0109253
:10278000DF0583FF04C091E09093E00502C0109242
:10279000E00582FF04C091E09093E10502C0109231
:1027A000E1050F90DF91CF910895DF92EF92FF92B4
:1027B0000F931F93CF93DF9300D01F92CDB7DEB757
:1027C0008C01F62E21E062130AC0FC0180818F7714
:1027D0000E949D0E8983682F87E00E947E13F80176
:1027E000D1808D2D8F770E949D0E8983F801E48022
:1027F000F2E0EF1206C0F80182810E949D0E8F73F5
:102800000DC0F8018281E11005C00E949D0E8F75F8
:10281000806404C00E949D0E8F7780668A832D2D70
:10282000F80142816E2D83810E944E120E949D0EFE
:10283000F8019381911102C0806801C080648B838C
:10284000F1E0FF1202C088E001C08BE043E0BE016E
:102850006F5F7F4F0E94741088E00E94F30FF801B1
:102860009381F1E0FF1204C0282F2C7F292B06C092
:1028700044E0949F90011124837F282B2983698150
:1028800088E00E949D10F80115810E949513682F21
:1028900081E08093E105F81621F0F2E0FF1639F0AF
:1028A0000FC0112311F0656008C06E7F05C01123B1
:1028B00011F0666002C06D7F64608EE00E947E133E
:1028C00081E00F900F900F90DF91CF911F910F91AA
:1028D000FF90EF90DF900895CF93DF93EC0161308C
:1028E00039F0623071F462E00E94D51362E004C0F6
:1028F00061E00E94D51361E0CE01DF91CF910C948D
:10290000B21282E0DF91CF910895CF93DF93BC01A3
:1029100085EB94E00E947F0BEC016DED71E085EB9F
:1029200094E00E947F0B8C0F9D1FDF91CF91089543
:10293000CF92DF92EF92FF920F931F93CF93DF938B
:10294000CDB7DEB727970FB6F894DEBF0FBECDBF69
:102950008C01FC01F680D480E5802F2D30E02053DF
:10296000384F81E090E0F2E0FE1510F480E090E056
:10297000281B390BEE2DF0E0EE0FFF1FEB59FE4F39
:102980000190F081E02DE20FF31FED0DF11DB90173
:102990007695679576956795E60FF71FC90160E90B
:1029A00071E00E94E225E60FF71FC90164E670E0BE
:1029B0000E94E225CF01861B970B67E070E00E9422
:1029C000E225CC24C394C80EF80180810E949D0E9C
:1029D0008983F80181810E949D0E8A83F801878195
:1029E000823029F482810E949D0E8F730EC0F801FF
:1029F000811106C082810E949D0E8F75806405C082
:102A000082810E949D0E8F7780668B838C2D0E9421
:102A10009D0E8C838D2D0E949D0E8D83F3E68E2D51
:102A2000FF1528F00E949D0E8E838F2D06C00E94F8
:102A30009D0E80688E838CE98F0D0E949D0E8F8382
:102A400047E0BE016F5F7F4F80E00E9474102796C1
:102A50000FB6F894DEBF0FBECDBFDF91CF911F91AF
:102A60000F91FF90EF90DF90CF9008951F93CF9339
:102A7000DF93EC01862F6C8360E00E94AC1911E0BB
:102A80001F838EE190E09A8F898F0E94221A6D8BAE
:102A90007E8B8F8B988F1D8361E08C810E947D19C6
:102AA0001E828D81811101C01E831C8E1B8E1E8E85
:102AB0001D8E18A21F8E1AA219A21CA21BA21D866F
:102AC0001E861F86188A1EA21DA281E08FA318866B
:102AD000DF91CF911F91089540E0682F83EE95E03C
:102AE0000C94160D81E00E946C158BE39FE1019719
:102AF000F1F70895E3EEF5E08089982F9460908BCC
:102B00008C600C946C15CF93DF93823028F09091F9
:102B1000F20598609093F2058093F6051092F70500
:102B200080E48093F80580E18093F90580E5809347
:102B3000FA0561E08091E7050E94AC198091E805F3
:102B40008F3F19F061E00E94AC1961E08091E905C6
:102B50000E94AC19C3EED5E09E01235E3540809102
:102B6000F20584FD03C084E090E002C088E090E0BC
:102B70002196281739072CF461E08E810E94AC1948
:102B8000EBCF8BE39DE00197F1F760E08091E705E3
:102B90000E947D1960E08091E9050E947D19809175
:102BA000E8058F3F19F060E00E947D198091F205E1
:102BB00084FD20C063E083EE95E00E94E90CCBE445
:102BC000D6E4CE010197F1F763E083EE95E00E9431
:102BD000E90C2197F1F763E083EE95E00E94E90CA0
:102BE00083E592E00197F1F762E083EE95E00E94C1
:102BF000E90C15C080620E946C158BE496E4019785
:102C0000F1F78091F20580620E946C1583E592E0F5
:102C10000197F1F78091F20580620E946C15809116
:102C2000F20580620E946C1584E08093F3050E9497
:102C30007A150E94721582E08093F40586E0DF9198
:102C4000CF910C946C159091B4049111FCCF91E04C
:102C50009093B4044093B3042FEF2093B2041092E6
:102C6000B104260F2093B0049093AF049091AF0469
:102C7000880F892B8093AF048091AE04813061F47A
:102C80001092AE048091AF048093BB008091BC0091
:102C900083FDF8CF85EC01C085EE8093BC00809168
:102CA000B4048130E1F38091B104861710F460918F
:102CB000B104AEE8B4E0EEE6F4E080E0861721F07F
:102CC0009D9191938F5FFACF0895282F30916D04D5
:102CD000313208F04AC08091B4048111FCCF909148
:102CE000FB0542E04093B4042093B3042FEF2093FC
:102CF000B2041092B1043093B004EDE4F4E0AEE815
:102D0000B4E020E0321721F041914D932F5FFACFCC
:102D10001092AF042091AF04990F922B9093AF04BF
:102D20009091AE04913061F41092AE049091AF0492
:102D30009093BB009091BC0093FDF8CF95EC01C03F
:102D400095EE9093BC009091B4049230E1F3909191
:102D5000B2049F3F79F08091B204803241F08091BB
:102D6000B204803331F084E005C081E003C082E02A
:102D700001C083E010924C0410926D0410924B0439
:102D8000089591E090934B048093FB0510924C04BE
:102D900010926D0408950F931F93CF93DF93C82F64
:102DA0008B018091D7050E94C1166C2F82E595E0BA
:102DB0000E940C0B80E00E946516C82F811112C082
:102DC00041E061E08091D7050E942316D82F109230
:102DD0004A048093490482E595E00E94C30AF80101
:102DE000808301C0D0E0F0E1CF9FC00111248D2B82
:102DF000DF91CF911F910F91089581E00C9465169A
:102E0000682F82E595E00C940C0B833081F028F458
:102E1000813099F08230A1F008958730A9F0883090
:102E2000B9F08430D1F4809180008F7D03C080910F
:102E300080008F7780938000089584B58F7702C0DB
:102E400084B58F7D84BD08958091B0008F7703C0D5
:102E50008091B0008F7D8093B00008953FB7F894C3
:102E60008091010690910206A0910306B09104069C
:102E700026B5A89B05C02F3F19F00196A11DB11DD5
:102E80003FBFBA2FA92F982F8827820F911DA11D10
:102E9000B11DBC01CD0142E0660F771F881F991F4D
:102EA0004A95D1F708951F93CF93DF93CDB7DEB73F
:102EB00028970FB6F894DEBF0FBECDBF182F0E9423
:102EC000F01129833A834B835C836D838F839887CA
:102ED000872F90E0112329F001968D3091055CF445
:102EE0000CC001978D30910534F4181619062CF09A
:102EF0008CE090E002C081E090E08E83CE010196EC
:102F00000E94981428960FB6F894DEBF0FBECDBF6E
:102F1000DF91CF911F9108951F93CF93DF93CDB78A
:102F2000DEB728970FB6F894DEBF0FBECDBF182FBF
:102F30000E94F01129833A834B835C837E838F83C5
:102F40009887262F30E0763051F028F4723049F01F
:102F50007430A9F404C0793011F07B3081F48EE133
:102F600013C040ED480F842F837059F4842F64E61A
:102F70000E94D625911107C0442329F002C08FE199
:102F800003C08CE101C08DE190E0B901112319F07B
:102F90006F5F7F4F06C061507109161617060CF05F
:102FA000BC018617970714F461E070E06D83CE01D1
:102FB00001960E94981428960FB6F894DEBF0FBEB3
:102FC000CDBFDF91CF911F9108951F93CF93DF93D2
:102FD000CDB7DEB728970FB6F894DEBF0FBECDBFD2
:102FE000182F0E94F01129833A834B835C836D83F1
:102FF0007E83988790E0112311F0019601C001971C
:103000008231910534F0883C91052CF082E190E00A
:1030100002C087EC90E08F83CE0101960E94981445
:1030200028960FB6F894DEBF0FBECDBFDF91CF91CB
:103030001F9108951F93CF93DF93CDB7DEB72797E6
:103040000FB6F894DEBF0FBECDBF182F8130C1F090
:10305000823009F04EC081E08093DB0582E00E945F
:10306000C71029833A834B835C836D837E83BE01C3
:10307000695F7F4F8FE00E94CB166F816D7F13C019
:103080008093DA0581E00E94C71029833A834B833D
:103090005C836D837E83BE01695F7F4F8FE00E94FA
:1030A000CB166F816E7F6F838FE00E947E138A81C3
:1030B000875F8C3318F09B819F5F9B836CE30E943A
:1030C000D6259A839D818B81923041F02CE0622F2E
:1030D0000E94D625911105C02B8304C068E10E948F
:1030E000D6259B83612FCE0101960E94D51381E0E6
:1030F00001C082E027960FB6F894DEBF0FBECDBFA9
:10310000DF91CF911F910895643008F063E09091B2
:10311000F605691710F06FEF690FE62FF0E0ED513B
:10312000FA4F9489890F80680C946C15EF92FF9286
:103130000F931F93CF93DF93CDB7DEB762970FB690
:10314000F894DEBF0FBECDBF8C01CB01F801118218
:10315000108213821282158214824AE09E012F5F30
:103160003F4F7901B9010E94F020F7010190002042
:10317000E9F73197AF014E195F09B701C8010E9405
:10318000DC0862960FB6F894DEBF0FBECDBFDF91AC
:10319000CF911F910F91FF90EF900895FC01448112
:1031A00055816081718183EE95E00C947309CF9312
:1031B000DF931F92CDB7DEB7BE016F5F7F4F8FE009
:1031C0000E94CB1669816F7769838FE00E947E131E
:1031D0000F90DF91CF910895E3EEF5E080898E7F27
:1031E000808B88600C946C15E3EEF5E080898D7F10
:1031F000808B88600C946C15CF93DF9300D000D047
:1032000000D0CDB7DEB719821A8296E09B8391E099
:103210009C831D821E82682FCE0101960E946C1431
:1032200026960FB6F894DEBF0FBECDBFDF91CF91CB
:103230000895CF93DF9300D000D000D0CDB7DEB794
:103240009FEF980F923048F40E942F1181E04D308B
:1032500010F4411103C0623009F080E026960FB6E9
:10326000F894DEBF0FBECDBFDF91CF9108950F93CD
:103270001F93CF93DF938B01877028E0829FC0015B
:10328000112480640E946C15E801085F1F4F69914A
:1032900083EE95E00E94690DC017D107C1F7DF9159
:1032A000CF911F910F910895CF93DF93282F30E096
:1032B000F901EB51FE4F8491F901EF52FE4FD49189
:1032C000F901E354FE4FC491CC2391F081110E9487
:1032D0000517EC2FF0E0EE0FFF1FED54FE4FA59108
:1032E000B491EC91ED2381E090E021F480E002C004
:1032F00080E090E0DF91CF9108951F93CF93DF930B
:10330000282F30E0F901EB51FE4F8491F901EF5283
:10331000FE4FD491F901E354FE4FC491CC23C1F088
:10332000162F81110E940517EC2FF0E0EE0FFF1F02
:10333000E755FE4FA591B4919FB7F894111104C0C1
:103340008C91D095D82302C0EC91DE2BDC939FBFEB
:10335000DF91CF911F910895CF93DF9390E0FC010F
:10336000EF52FE4F2491FC01E354FE4F84918823D9
:1033700061F190E0880F991FFC01E156FE4FC59165
:10338000D491FC01E755FE4FA591B491611109C09C
:103390009FB7F8948881209582238883EC912E230F
:1033A0000BC0623061F49FB7F8948881322F30955A
:1033B00083238883EC912E2B2C939FBF06C08FB75D
:1033C000F894E8812E2B28838FBFDF91CF91089549
:1033D0008F929F92AF92BF92CF92DF92EF92FF9225
:1033E0006B017C010E942E174B015C01C114D104BA
:1033F000E104F104F1F00E942E17DC01CB018819E1
:103400009909AA09BB09883E9340A105B10570F34B
:1034100021E0C21AD108E108F10888EE880E83E0A5
:10342000981EA11CB11CC114D104E104F10419F7C8
:10343000DDCFFF90EF90DF90CF90BF90AF909F9047
:103440008F9008952FB7F8946091FD057091FE0557
:103450008091FF05909100062FBF08951F920F9253
:103460000FB60F9211242F933F938F939F93AF9397
:10347000BF938091FD059091FE05A091FF05B0914D
:1034800000063091FC0523E0230F2D3720F4019630
:10349000A11DB11D05C026E8230F0296A11DB11D77
:1034A0002093FC058093FD059093FE05A093FF05F6
:1034B000B09300068091010690910206A091030648
:1034C000B09104060196A11DB11D80930106909351
:1034D0000206A0930306B0930406BF91AF919F919B
:1034E0008F913F912F910F900FBE0F901F901895C5
:1034F000CF93DF93CDB7DEB769970FB6F894DEBFF1
:103500000FBECDBF789484B5826084BD84B58160E0
:1035100084BD85B5826085BD85B5816085BD80919E
:103520006E00816080936E00109281008091810016
:10353000826080938100809181008160809381000E
:10354000809180008160809380008091B1008460D0
:103550008093B1008091B00081608093B000809131
:103560007A00846080937A0080917A0082608093F0
:103570007A0080917A00816080937A0080917A004D
:10358000806880937A001092C1000E94221A609392
:10359000E7037093E8038093E9039093EA03E091D3
:1035A000C504F091C60482E08083E091C104F091EB
:1035B000C2041082E091C304F091C4048FEC8083B4
:1035C0001092CD04E091C904F091CA0486E0808392
:1035D000E091C704F091C804808180618083E0910C
:1035E000C704F091C804808188608083E091C7049B
:1035F000F091C804808180688083E091C704F091D5
:10360000C80480818F7D808383EB92E00E948514C3
:1036100061E08DE00E94AC1960E08DE00E947D19B0
:1036200061E08CE00E94AC1960E08CE00E947D19A2
:1036300082E00E94831568E171E081E00E94371901
:1036400060E171E082E00E94371968E071E083E098
:103650000E94371960E071E084E00E9437191092EF
:103660004A041092490410924C0410926D04109276
:10367000B40481E08093B3041092AE0461E082E16F
:103680000E947D1961E083E10E947D198091B9005B
:103690008E7F8093B9008091B9008D7F8093B900AF
:1036A00088E48093B80085E48093BC0081EB9AE0C5
:1036B0009093E2038093E10382EB9AE09093E0031E
:1036C0008093DF030E949513682F64608EE00E9450
:1036D0007E130E9495131092DA051092DB05BE014D
:1036E000615F7F4F85E00E94CB168F8587FD02C00A
:1036F00010E001C014E6BE01615F7F4F86E00E94CA
:10370000CB168F850E94A70E810F8231D0F41982CB
:103710001A828CE08B8382E08C8381E08D838E83A0
:1037200082E18F831886CE0101960E9498146CE185
:103730008EE00E947E130E94951381E00E94FC1887
:103740002BC081E00E941919882379F081E00E9442
:103750002F1129833A834B835C836D837E8361E0E1
:10376000CE0101960E946C1403C081E00E94FC18F7
:1037700082E00E941919882379F082E00E942F11BB
:1037800029833A834B835C836D837E8362E0CE0121
:1037900001960E946C1403C082E00E94FC18BE01D6
:1037A0006F5F7F4F8FE00E94CB16898187FF08C033
:1037B00010922501109224018FEB92E00E94851453
:1037C0000E94EF0E6093E3037093E4038093E5039C
:1037D0009093E6034FE657E05093A7054093A60564
:1037E00028EB3BE0309388052093870580E696E040
:1037F0009093AB058093AA0550937F0540937E0577
:103800003093600520935F05909383058093820534
:103810005093CF054093CE053093B0052093AF056C
:103820009093D3058093D20581E00E94A3046FECAE
:1038300072E085EB94E00E94DD0B0E949513482F07
:1038400050E060E070E022E085EB94E00E94940B91
:103850006DED71E085EB94E00E947F0B60EE72E00D
:1038600085EB94E00E94DD0BBE016F5F7F4F8FE020
:103870000E94CB16498150E060E070E022E085EBC9
:1038800094E00E94940B6DED71E085EB94E00E9452
:103890007F0B81EF92E00E948514E0912401F0916A
:1038A0002501E830F10508F02CC3E65BFF4F80915D
:1038B0002201909123010C944B26892B61F08BEF10
:1038C00092E00E94851480912401909125019093AB
:1038D00023018093220180E00E94A3040E94221A07
:1038E000C0900204D0900304E0900404F09005041A
:1038F000DC01CB018C199D09AE09BF09883E9340BC
:10390000A105B10508F404C30E94221A60930204C1
:103910007093030480930404909305041091210193
:10392000112349F08091F3058B7F8093F305886024
:103930000E946C1502C00E947A1581E0182710932E
:103940002101E6C2019709F4E0C282E193E00E94FE
:1039500085148091240190912501909323018093F7
:103960002201D3C2029761F089E293E00E9485149C
:10397000809124019091250190932301809322014D
:103980000E94221AC090ED03D090EE03E090EF0366
:10399000F090F003DC01CB018C199D09AE09BF0941
:1039A000813D9740A105B10528F591C2039761F0CB
:1039B00081E493E00E948514809124019091250177
:1039C00090932301809322010E94221AC090ED035C
:1039D000D090EE03E090EF03F090F003DC01CB0118
:1039E0008C199D09AE09BF09813D9740A105B1051C
:1039F00008F484C281E090E0909325018093240133
:103A000085C2049761F089E593E00E948514809156
:103A1000240190912501909323018093220180E05D
:103A20000E94A3040E94221AC0900204D0900304B2
:103A3000E0900404F0900504DC01CB018C199D0991
:103A4000AE09BF09883E9340A105B10508F460C2E4
:103A50000E94221A6093020470930304809304046A
:103A60009093050410912101112349F08091F305F1
:103A70008B7F8093F30588600E946C1502C00E94C2
:103A80007A1581E01827109321018DE00E945419C6
:103A900061E0892B09F060E08DE00E947D198DE5E1
:103AA00091E0998B888BA3E5B1E0BF8BAE8BE88961
:103AB000F98961917191F98BE88B88EE93E00E940E
:103AC000F625798F688FCB01092E000CAA0BBB0B52
:103AD0008A8B9B8BAC8BBD8BAE89BF892D903D9023
:103AE000BF8BAE8B809120018C3021F08F3F09F08D
:103AF00088C104C0EEE9F1E0149172C08CE08093BB
:103B00002001EEE9F1E014911F3F09F47AC1113070
:103B100009F442C038F1123009F062C01092B000CE
:103B20001092B1008091B00082608093B0008091CB
:103B3000B10081608093B100E9ECF1E08491E82F5D
:103B4000F0E0EE0FFF1FE755FE4F859194919093A3
:103B5000F3038093F203EDEDF1E084918093F103A0
:103B600012E0A4C214BC15BC84B5826084BD85B5C6
:103B7000816085BDE9ECF1E08491E82FF0E0EE0F83
:103B8000FF1FE755FE4F85919491EDEDF1E0849193
:103B90008093F50310E08AC2109280001092810099
:103BA0008091810088608093810080918100816094
:103BB00080938100E9ECF1E08491E82FF0E0EE0FD2
:103BC000FF1FE755FE4F85919491EDEDF1E0849153
:103BD0008093F40361E08CE00E94AC1911E084C092
:103BE00017FD0FC161E08CE00E94AC19812F8D7F21
:103BF00009F07AC04101A12CB12C60E072E18AE7A2
:103C000090E0A50194010E942C2629013A01690146
:103C10007A01F1E0CF1AD108E108F1082FEFC216BE
:103C2000D104E104F10409F008F44CC060E472E44A
:103C30008FE090E0A50194010E942C2669017A0191
:103C400081E0C81AD108E108F108123009F59FEFA8
:103C5000C916D104E104F10409F008F4F0C160E9E7
:103C600070ED83E090E0A50194010E942C2669018B
:103C70007A01A1E0CA1AD108E108F108BFEFCB161A
:103C8000D104E104F10411F008F068C183E025C01B
:103C9000EFEFCE16D104E104F104B1F0A8F068E42E
:103CA00078EE81E090E0A50194010E942C26690144
:103CB0007A01F1E0CF1AD108E108F108112309F4E3
:103CC000C0C18BC181E001C082E0111106C095B571
:103CD000987F892B85BD46C085E09091B100987F83
:103CE000892B8093B1003EC04101A12CB12C60E032
:103CF00072E18AE790E0A50194010E942C266901F7
:103D00007A01B1E0CB1AD108E108F108C114D1045D
:103D1000E1E0EE06F10488F068E478EE81E090E0FE
:103D2000A50194010E942C2669017A01F1E0CF1AC5
:103D3000D108E108F10883E001C081E0113091F47D
:103D400090918100987F892B809381008A899B893B
:103D5000AC89BD89892B8A2B8B2B61F42FEF3FEF28
:103D6000A9012EC08A899B89AC89BD89892B8A2BA0
:103D70008B2B71F09101220F331FA88DB98D0E94FA
:103D8000512628EE33E040E050E00E940A2603C0AE
:103D90002FEF3FEFA901113099F0123019F11111F5
:103DA00030C0C7BC2093FE033093FF034093000450
:103DB0005093010480916E00826080936E0021C058
:103DC000D0928900C09288002093FA033093FB03BD
:103DD0004093FC035093FD0380916F0082608093B9
:103DE0006F000FC0C092B3002093F6033093F70327
:103DF0004093F8035093F9038091700082608093A0
:103E000070006A897B898C899D890E945E2326E6E1
:103E100036E646EA5FE30E94BD230E94A025072EF6
:103E2000000C880B990B0E94E8198CE00E94540B3F
:103E3000A889B989A756B14009F039CE69C005975C
:103E400061F08CE693E00E948514809124019091AA
:103E5000250190932301809322018091EC039EE041
:103E6000E5E4F1E0DE01119601900D929A95E1F7FB
:103E7000FE013196E80FF11DE80FF11D618180818F
:103E80000E9484188091F305982F92609093F30517
:103E90008A600E946C158091F305982F9160909331
:103EA000F30589600E946C1530C0069761F083E8C5
:103EB00093E00E94851480912401909125019093B4
:103EC0002301809322018091EC030E94A90360E00A
:103ED00081E00E94E4031CC0079761F08BE993E046
:103EE0000E948514809124019091250190932301D3
:103EF000809322018091EC030E94A90360E082E09C
:103F0000E8CF83EB93E00E94851480E00E94A30435
:103F100087E895E00E94370C8FE595E00E94370C0A
:103F20008FEA95E00E94370C82E00E9454197C01D0
:103F30001982BE016F5F7F4F8FE00E94CB1689818F
:103F40008370EF2831F424E030E030932501209392
:103F500024018093EB030E94750A9FCC68E478EEFD
:103F600081E090E0A50194010E942C2669017A016C
:103F7000F1E0CF1AD108E108F1082FEFC216D10401
:103F8000E104F10441F138F164E274EF80E090E083
:103F9000A50194010E942C2669017A0181E0C81ACA
:103FA000D108E108F1089FEFC916D104E104F1043A
:103FB00009F008F491CE62E17AE780E090E0A50193
:103FC00094010E942C2669017A01A1E0CA1AD10845
:103FD000E108F10819C084E080CEEFEFCE16D104DD
:103FE000E104F10409F008F45FC062E17AE780E0DF
:103FF00090E0A50194010E942C2669017A01B1E0AC
:10400000CB1AD108E108F1082FEFC216D104E10460
:10401000F10499F090F0D301C2012AE0B595A7957B
:10402000979587952A95D1F76C017D01F1E0CF1A1C
:10403000D108E108F10887E050CE86E04ECE82E05C
:104040004CCEAFEFCA16D104E104F10459F150F19E
:1040500062E17AE780E090E0A50194010E942C26BD
:1040600069017A0181E0C81AD108E108F1089FEFDF
:10407000C916D104E104F10499F090F0D301C20112
:104080003AE0B595A795979587953A95D1F76C0144
:104090007D01E1E0CE1AD108E108F10885E017CEF4
:1040A00084E015CE83E013CE84E00FCE61E08CE097
:1040B0000E94AC199FCDE5EBF4E01382128288EEEA
:1040C00093E0A0E0B0E084839583A683B78323E8E0
:1040D00031E03183208325EC30E03587248724ECE0
:1040E00030E03787268720EC30E0318B208B21ECC5
:1040F00030E0338B228B22EC30E0358B248B26ECA6
:1041000030E0378B268B118E128E138E148EE2E5E3
:10411000F5E01382128284839583A683B78385E9B1
:1041200091E091838083E3EEF5E01382128287EAC7
:1041300091E09183808383E084838FEF858384E0A3
:10414000868385E0878386E0808787E0818788E0B3
:1041500082871386148615861686178681E00E944C
:104160008315E7EDF5E081E0828390E2938798E69E
:10417000908397E5918382876BE08FEA95E00E94B8
:10418000361569E087E895E00E9436156AE08FE50C
:1041900095E00E9436158091260180935E05089572
:1041A000EF920F931F93CF93DF93E80147FD02C077
:1041B00034E001C034E1042E000C550B57FF03C05E
:1041C000519541955109E32E022F242FAE010E94F3
:1041D0001521CE01DF91CF911F910F91EF9008959E
:1041E000BB274A3031F4992322F4BDE290958195A2
:1041F0009F4F0C94FC20BB27FB015527AA27880F53
:10420000991FAA1FA41710F0A41B83955051B9F74A
:10421000A05DAA3308F0A95DA193009779F7B111C9
:10422000B1931192CB010C944723A9E0B0E0EBE1EC
:10423000F1E20C9481246A01122FB02E2BE3201797
:1042400020F0FF24F394F00E02C02CE3F22E0F2D89
:1042500027E0AE014F5F5F4F0E946F22BC01498192
:10426000842F8970813031F0E1FC06C0E0FE06C089
:1042700090E205C09DE203C09BE201C090E05E2D8C
:10428000507143FF3CC0911102C083E001C084E043
:10429000811718F4212F281B01C020E051110BC0F9
:1042A000F601822F30E2882319F031938150FBCF41
:1042B000C20ED11C20E0992329F0D6019C93F6016F
:1042C00031966F01C6010396E2FE0AC03EE4D601B4
:1042D0003C9341E411964C93119712963C9306C07F
:1042E0003EE6F601308341E641833283FC01322F02
:1042F00040E2332309F442C041933150FACF42FFE8
:1043000044C0911102C083E001C084E0811718F419
:10431000212F281B01C020E051110BC0F601822F74
:1043200030E2882319F031938150FBCFC20ED11CAB
:1043300020E0992329F0D6019C93F60131966F0174
:10434000C6010396E2FE0BC039E4D6013C933EE47D
:1043500011963C93119736E412963C9307C039E6C8
:10436000F60130833EE6318336E63283FC01322F9C
:1043700040E2332319F041933150FBCFFC01E20FAF
:10438000F11D10828EEF9FEFA6C021E030E0911169
:1043900002C020E030E0161617061CF4FB0131962F
:1043A00002C0E1E0F0E02E0F3F1FBB2021F0EB2D1B
:1043B000F0E0319602C0E0E0F0E02E0F3F1FE12F69
:1043C000F0E02E173F071CF4121B212F01C020E044
:1043D0008E2D887159F4F601822F30E2882319F06E
:1043E00031938150FBCFC20ED11C20E0992329F0DC
:1043F000D6019C93F60131966F0151110BC0F60165
:10440000822F90E3882319F091938150FBCFC20E45
:10441000D11C20E00F2D060F9A81342F307144FFFC
:1044200003C0913309F40150101624F4093018F038
:1044300008E001C001E0AB0177FF02C040E050E0BE
:10444000FB01E41BF50BA1E0B0E0AC0FBD1FEA0FD0
:10445000FB1F8EE2A82E4B01801A91080B2D10E055
:104460001195019511094F3FBFEF5B0721F4D6016C
:10447000AC9211966D01641775072CF084169506A1
:1044800014F4818101C080E3415051093196D60175
:1044900011967D014017510724F0D6018C936701D6
:1044A000E2CF6417750739F4963320F4953319F485
:1044B000311101C081E3F6018083F701822F90E280
:1044C000882319F091938150FBCFF701E20FF11D82
:1044D000108280E090E02996ECE00C949D24283036
:1044E00008F027E03327DA01990F311D87FD91602D
:1044F00000966105710539F432602E5F3D9330E31B
:104500002A95E1F708959F3F30F0803871056105E5
:1045100009F03C5F3C5F3D93913008F08068911D4D
:10452000DF93CF931F930F93FF92EF92192F987FF2
:104530009695E92F96959695E90FFF27E250FF4F44
:1045400099273327EE24FF24A701E701059008945B
:10455000079428F4360FE71EF81E491F511D660FF9
:10456000771F881F991F0694A1F70590079428F4D8
:10457000E70EF81E491F561FC11D770F881F991F90
:10458000661F0694A1F70590079428F4F80E491FBA
:10459000561FC71FD11D880F991F661F771F0694CE
:1045A000A1F70590079420F4490F561FC71FD81F85
:1045B000990F661F771F881F0694A9F7849110959D
:1045C000177041F0D695C79557954795F794E7949E
:1045D0001A95C1F7E4EAF0E06894159015913591C9
:1045E0006591959105907FE27395E118F10A430B6F
:1045F000560BC90BD009C0F7E10CF11E431F561F23
:10460000C91FD01D7EF4703311F48A95E6CFE8946B
:10461000015030F0080F0AF40027021708F4202F89
:104620002395022F7A3328F079E37D932A95E9F7D1
:1046300010C07D932A9589F60694979567953795CE
:1046400017951794E118F10A430B560BC90BD009C3
:1046500098F023957E9173957A3308F070E37C93FC
:104660002013B8F77E9170617D9330F0839571E3EC
:104670007D9370E32A95E1F71124EF90FF900F915D
:104680001F91CF91DF91992787FD90950895DC01C7
:10469000FC01672F71917723E1F7329704C07C9179
:1046A0006D9370836291AE17BF07C8F308950E949F
:1046B000992308F481E00895E89409C097FB3EF43B
:1046C00090958095709561957F4F8F4F9F4F99235F
:1046D000A9F0F92F96E9BB279395F69587957795DD
:1046E0006795B795F111F8CFFAF4BB0F11F460FF9D
:1046F0001BC06F5F7F4F8F4F9F4F16C0882311F0F5
:1047000096E911C0772321F09EE8872F762F05C008
:10471000662371F096E8862F70E060E02AF09A95A3
:10472000660F771F881FDAF7880F9695879597F998
:104730000895990F0008550FAA0BE0E8FEEF161632
:104740001706E807F907C0F012161306E407F50785
:1047500098F0621B730B840B950B39F40A2661F0F9
:10476000232B242B252B21F408950A2609F4A1409C
:10477000A6958FEF811D811D08950E94D0230C9472
:1047800041240E94332438F00E943A2420F09523DB
:1047900011F00C942A240C94302411240C947524C8
:1047A0000E94522470F3959FC1F3950F50E0551F5E
:1047B000629FF001729FBB27F00DB11D639FAA2776
:1047C000F00DB11DAA1F649F6627B00DA11D661FC5
:1047D000829F2227B00DA11D621F739FB00DA11DE6
:1047E000621F839FA00D611D221F749F3327A00DA0
:1047F000611D231F849F600D211D822F762F6A2F3C
:1048000011249F5750409AF0F1F088234AF0EE0FA0
:10481000FF1FBB1F661F771F881F91505040A9F7CD
:104820009E3F510580F00C942A240C9475245F3F20
:10483000E4F3983ED4F3869577956795B795F79509
:10484000E7959F5FC1F7FE2B880F911D9695879581
:1048500097F9089597F99F6780E870E060E0089500
:104860009FEF80EC089500240A9416161706180688
:104870000906089500240A94121613061406050664
:104880000895092E0394000C11F4882352F0BB0FF5
:1048900040F4BF2B11F460FF04C06F5F7F4F8F4F58
:1048A0009F4F089557FD9058440F551F59F05F3F93
:1048B00071F04795880F97FB991F61F09F3F79F042
:1048C00087950895121613061406551FF2CF4695C4
:1048D000F1DF08C0161617061806991FF1CF869546
:1048E0007105610508940895E894BB27662777272A
:1048F000CB0197F908952F923F924F925F926F925A
:104900007F928F929F92AF92BF92CF92DF92EF925F
:10491000FF920F931F93CF93DF93CDB7DEB7CA1BE0
:10492000DB0B0FB6F894DEBF0FBECDBF09942A880B
:10493000398848885F846E847D848C849B84AA84B3
:10494000B984C884DF80EE80FD800C811B81AA8140
:10495000B981CE0FD11D0FB6F894DEBF0FBECDBF0B
:10496000ED010895A29FB001B39FC001A39F700DF8
:10497000811D1124911DB29F700D811D1124911D67
:1049800008955058BB27AA270E94D9240C9441248B
:104990000E94332438F00E943A2420F039F49F3FDB
:1049A00019F426F40C9430240EF4E095E7FB0C94F3
:1049B0002A24E92F0E94522458F3BA17620773077A
:1049C0008407950720F079F4A6F50C9474240EF46E
:1049D000E0950B2EBA2FA02D0B01B90190010C010F
:1049E000CA01A0011124FF27591B99F0593F50F427
:1049F000503E68F11A16F040A22F232F342F44277F
:104A0000585FF3CF469537952795A795F040539576
:104A1000C9F77EF41F16BA0B620B730B840BBAF046
:104A20009150A1F0FF0FBB1F661F771F881FC2F7B1
:104A30000EC0BA0F621F731F841F48F487957795C5
:104A40006795B795F7959E3F08F0B0CF9395880F7F
:104A500008F09927EE0F9795879508950E944225B3
:104A60000C9441240E943A2458F00E94332440F0D0
:104A700029F45F3F29F00C942A2451110C947524D9
:104A80000C9430240E94522468F39923B1F35523E7
:104A900091F3951B550BBB27AA2762177307840751
:104AA00038F09F5F5F4F220F331F441FAA1FA9F3E7
:104AB00035D00E2E3AF0E0E832D091505040E695D5
:104AC000001CCAF72BD0FE2F29D0660F771F881F36
:104AD000BB1F261737074807AB07B0E809F0BB0B29
:104AE000802DBF01FF2793585F4F3AF09E3F51053D
:104AF00078F00C942A240C9475245F3FE4F3983EDC
:104B0000D4F3869577956795B795F7959F5FC9F725
:104B1000880F911D9695879597F90895E1E0660FA6
:104B2000771F881FBB1F621773078407BA0720F01F
:104B3000621B730B840BBA0BEE1F88F7E095089588
:104B40000E94A7256894B1110C94752408950E94C1
:104B50005A2488F09F5798F0B92F9927B751B0F091
:104B6000E1F0660F771F881F991F1AF0BA95C9F7F1
:104B700014C0B13091F00E947424B1E008950C94F7
:104B80007424672F782F8827B85F39F0B93FCCF3AA
:104B9000869577956795B395D9F73EF4909580956E
:104BA000709561957F4F8F4F9F4F0895991B79E0C6
:104BB00004C0991F961708F0961B881F7A95C9F7AD
:104BC00080950895AA1BBB1B51E107C0AA1FBB1FFC
:104BD000A617B70710F0A61BB70B881F991F5A9589
:104BE000A9F780959095BC01CD01089597FB072EFC
:104BF00016F4009407D077FD09D00E94E22507FC47
:104C000005D03EF4909581959F4F089570956195DC
:104C10007F4F0895A1E21A2EAA1BBB1BFD010DC0F8
:104C2000AA1FBB1FEE1FFF1FA217B307E407F5075C
:104C300020F0A21BB30BE40BF50B661F771F881F38
:104C4000991F1A9469F760957095809590959B01CE
:104C5000AC01BD01CF010895052E97FB1EF4009411
:104C60000E94432657FD07D00E940A2607FC03D066
:104C70004EF40C94432650954095309521953F4F26
:104C80004F4F5F4F089590958095709561957F4F38
:104C90008F4F9F4F0895EE0FFF1F0590F491E02D69
:104CA00009940E94B224B7FF0895821B930B0895C4
:104CB0000F931F93CF93DF938230910510F482E01E
:104CC00090E0E0910706F091080620E030E0A0E0D7
:104CD000B0E0309719F1408151810281138148176A
:104CE0005907C8F08417950769F4109731F01296A8
:104CF0000C93129713961C9327C0009307061093EA
:104D0000080622C02115310519F04217530718F47F
:104D10009A01BD01EF01DF01F801DBCF211531055B
:104D2000F9F0281B390B2430310580F48A819B81EE
:104D30006115710521F0FB019383828304C0909378
:104D4000080680930706FE01329644C0FE01E20F7A
:104D5000F31F8193919322503109398328833AC0FC
:104D60002091050630910606232B41F4209129015C
:104D700030912A01309306062093050620912701E1
:104D8000309128012115310541F42DB73EB74091EE
:104D90002B0150912C01241B350BE0910506F0915D
:104DA0000606E217F307A0F42E1B3F0B281739075E
:104DB00078F0AC014E5F5F4F2417350748F04E0F77
:104DC0005F1F50930606409305068193919302C09E
:104DD000E0E0F0E0CF01DF91CF911F910F910895B6
:104DE000CF93DF93009709F481C0FC0132971382BF
:104DF0001282A0910706B0910806109781F42081D5
:104E00003181820F931F20910506309106062817E5
:104E1000390751F5F0930606E093050667C0ED01EA
:104E200020E030E0CE17DF0740F44A815B819E012D
:104E300041155105F1F0EA01F5CFD383C2834081DA
:104E40005181840F951FC817D90759F4888199811A
:104E5000840F951F0296918380838A819B8193831F
:104E600082832115310529F4F0930806E0930706A3
:104E70003DC0E901FB83EA8349915991C40FD51FD5
:104E8000EC17FD0761F480819181840F951F0296D4
:104E9000E90199838883828193819B838A83E0E0FF
:104EA000F0E012968D919C911397009719F0FD01F7
:104EB000DC01F7CF8D919C9111979D012E5F3F4FA3
:104EC000820F931F20910506309106062817390797
:104ED00069F4309729F4109208061092070602C070
:104EE00013821282B0930606A0930506DF91CF913C
:104EF0000895A0E0B0E0EFE7F7E20C947F24EC0126
:104F0000009721F4CB010E945826B4C0FC01E60FA3
:104F1000F71F9C0122503109E217F30708F4A8C0DB
:104F2000D9010D911C91119706171707B0F00530A4
:104F3000110508F49BC0C80104978617970708F469
:104F400095C002501109061B170B019311936D9325
:104F50007C93CF010E94F02689C05B01A01AB10AA0
:104F60004C01800E911EA0910706B0910806612C9D
:104F7000712CE12CF12C109709F446C08D919C9175
:104F80001197A815B905B1F56C0142E0C40ED11C0A
:104F9000CA14DB0478F14C018A189B08640142E0D2
:104FA000C40ED11C1296BC9012971396AC91B5E02A
:104FB000CB16D10440F0B282A38391828082D901C2
:104FC0006D937C9309C00E5F1F4F800F911FF901F5
:104FD00091838083EB2DFA2FE114F10431F0D70196
:104FE0001396FC93EE93129741C0F0930806E0935A
:104FF00007063CC06816790608F43C017D0112964C
:105000000D90BC91A02DB7CF80910506909106061A
:1050100088169906E1F466167706C8F48091270190
:1050200090912801009741F48DB79EB740912B01D4
:1050300050912C01841B950BE817F907C8F4F093E5
:105040000606E0930506F901718360830FC0CB016A
:105050000E9458267C01009759F0A801BE010E94C9
:105060004428CE010E94F026C70104C0CE0102C030
:1050700080E090E0CDB7DEB7EEE00C949B2481E0B9
:1050800090E0F8940C945428FB01DC0102C00190DC
:105090000D9241505040D8F70895FB01DC0101907A
:0C50A0000D920020E1F70895F894FFCF76
:1050AC000002070507050500040E1F00001F0E0473
:1050BC0000000000001F0E04040E1F000000000082
:1050CC00FF01070001000100000906800001010436
:1050DC000107010901930297029B029F02A302A7F9
:1050EC0002AB02AF020100040007000F000501082B
:1050FC00010D0117041704170417041704100010EE
:10510C000010001000100000000300020005000059
:10511C00000300050001000400060002000400006A
:10512C00000000060A73099D09530ACE09AC09C098
:10513C0009000000000C0BDF0A3B0BB30AD70AC3B3
:10514C000AB40A00000000690D73093B0BA0085358
:10515C006E6F6F7A65204163746976617465640063
:10516C0053657474696E6720416C61726D310061B6
:10517C006C61726D2E486F7572203D20000D0A0017
:10518C00456E64206368616E6765486F7572004197
:10519C006C61726D203200416C61726D2031004F78
:1051AC004E004F4646003A0020414D0020504D0025
:1051BC0020204D00204461696C7900205765656B97
:1051CC0064617900205765656B656E6400204F6ED5
:1051DC0063650020414D200020504D200020204DC3
:1051EC00200043002F00427574746F6E20486F6C62
:1051FC0064202D2000536E6F6F7A655F50696E00CE
:10520C004C745F50696E0052745F50696E00427549
:10521C0074746F6E20436C69636B202D2000427593
:10522C0074746F6E20436C69636B2069676E6F7268
:10523C006564002D2D2D0053756E004D6F6E00545E
:10524C0075650057656400546875004672690053B3
:10525C00617400536574757020426567696E005007
:10526C006F7765724C6F7373205374617465005261
:10527C00656769737465722030783045203D200075
:10528C0052656769737465722030783046203D2012
:10529C0000536574757020456E6400436C6F636BCE
:1052AC005374617465203D20506F7765724C6F7339
:1052BC007300436C6F636B5374617465203D2053B2
:1052CC00686F77436C6F636B00436C6F636B5374E5
:1052DC00617465203D2053686F77416C61726D314C
:1052EC0000436C6F636B5374617465203D2053688D
:1052FC006F77416C61726D3200436C6F636B5374EA
:10530C00617465203D20416C61726D00436C6F636C
:10531C006B5374617465203D2045646974436C6FF4
:10532C00636B00436C6F636B5374617465203D2039
:10533C0045646974416C61726D3100436C6F636BD1
:10534C005374617465203D2045646974416C6172CD
:10535C006D3200436C6F636B5374617465203D2038
:0C536C0064656661756C742121003000DE
:107E0000112484B714BE81FFF0D085E080938100F7
:107E100082E08093C00088E18093C10086E0809377
:107E2000C20080E18093C4008EE0C9D0259A86E02C
:107E300020E33CEF91E0309385002093840096BBD3
:107E4000B09BFECF1D9AA8958150A9F7CC24DD24C4
:107E500088248394B5E0AB2EA1E19A2EF3E0BF2EE7
:107E6000A2D0813461F49FD0082FAFD0023811F036
:107E7000013811F484E001C083E08DD089C08234E0
:107E800011F484E103C0853419F485E0A6D080C0E4
:107E9000853579F488D0E82EFF2485D0082F10E0AE
:107EA000102F00270E291F29000F111F8ED06801E7
:107EB0006FC0863521F484E090D080E0DECF843638
:107EC00009F040C070D06FD0082F6DD080E0C81688
:107ED00080E7D80618F4F601B7BEE895C0E0D1E017
:107EE00062D089930C17E1F7F0E0CF16F0E7DF06D8
:107EF00018F0F601B7BEE89568D007B600FCFDCFD4
:107F0000A601A0E0B1E02C9130E011968C91119780
:107F100090E0982F8827822B932B1296FA010C0160
:107F200087BEE89511244E5F5F4FF1E0A038BF0790
:107F300051F7F601A7BEE89507B600FCFDCF97BE46
:107F4000E89526C08437B1F42ED02DD0F82E2BD052
:107F50003CD0F601EF2C8F010F5F1F4F84911BD097
:107F6000EA94F801C1F70894C11CD11CFA94CF0C13
:107F7000D11C0EC0853739F428D08EE10CD085E9AC
:107F80000AD08FE07ACF813511F488E018D01DD067
:107F900080E101D065CF982F8091C00085FFFCCF94
:107FA0009093C60008958091C00087FFFCCF809118
:107FB000C00084FD01C0A8958091C6000895E0E648
:107FC000F0E098E1908380830895EDDF803219F02E
:107FD00088E0F5DFFFCF84E1DECF1F93182FE3DFCA
:107FE0001150E9F7F2DF1F91089580E0E8DFEE27F6
:047FF000FF270994CA
:027FFE00040479
:0400000300007E007B
:00000001FF
